{
    "contractName": "Counter",
    "abi": [
        {
            "inputs": [],
            "stateMutability": "nonpayable",
            "type": "constructor"
        },
        {
            "inputs": [],
            "name": "getCount",
            "outputs": [
                {
                    "internalType": "uint256",
                    "name": "",
                    "type": "uint256"
                }
            ],
            "stateMutability": "view",
            "type": "function"
        },
        {
            "inputs": [],
            "name": "incrementCount",
            "outputs": [],
            "stateMutability": "nonpayable",
            "type": "function"
        }
    ],
    "bytecode": "608060405234801561001057600080fd5b506000805560c6806100236000396000f3fe6080604052348015600f57600080fd5b506004361060325760003560e01c8063a87d942c146037578063e5071b8e14604c575b600080fd5b60005460405190815260200160405180910390f35b60526054565b005b6000805490806061836068565b9190505550565b6000600019821415608957634e487b7160e01b600052601160045260246000fd5b506001019056fea264697066735822122021299a47c4fa1a8c801873f84cb3374c3bc3139b721ae38328f8b089923191db64736f6c63430008070033",
    "sourcePath": "c:/Users/diogo/OneDrive/Bureau/Solidity Project/Smart Contract/Counter.sol",
    "compiler": {
        "name": "solc",
        "version": "0.8.7+commit.e28d00a7"
    },
    "functionHashes": {
        "getCount()": "a87d942c",
        "incrementCount()": "e5071b8e"
    },
    "gasEstimates": {
        "creation": {
            "codeDepositCost": "39600",
            "executionCost": "5099",
            "totalCost": "44699"
        },
        "external": {
            "getCount()": "2246",
            "incrementCount()": "24436"
        }
    }
}